:020000040800F2
:10000000E0690020290200083102000833020008DC
:10001000350200083702000839020008000000001D
:100020000000000000000000000000003B0200088B
:100030003D020008000000003F02000841020008E5
:10004000430200084302000843020008430200087C
:10005000430200084302000843020008430200086C
:10006000430200084302000843020008430200085C
:10007000430200084302000843020008430200084C
:10008000430200084302000843020008430200083C
:10009000430200084302000843020008430200082C
:1000A000430200084302000843020008430200081C
:1000B000430200084302000843020008430200080C
:1000C00043020008430200084302000843020008FC
:1000D00043020008430200084302000843020008EC
:1000E00043020008430200084302000843020008DC
:1000F00043020008430200084302000843020008CC
:1001000043020008430200084302000843020008BB
:10011000430200084302000843020008951B000840
:1001200043020008A104000843020008430200083B
:1001300043020008C105000843020008430200080A
:10014000430200084302000843020008430200087B
:10015000430200084302000843020008430200086B
:10016000430200084302000843020008430200085B
:100170004302000843020008890400080000000050
:10018000430200084302000800F002F800F03CF8C7
:100190000AA090E8000C82448344AAF10107DA45E2
:1001A00001D100F031F8AFF2090EBAE80F0013F0F8
:1001B000010F18BFFB1A43F001031847FC1B000096
:1001C0001C1C0000103A24BF78C878C1FAD8520726
:1001D00024BF30C830C144BF04680C6070470000C1
:1001E0000023002400250026103A28BF78C1FBD840
:1001F000520728BF30C148BF0B6070471FB501F0E0
:10020000D5FD1FBD10B510BD00F031F81146FFF748
:10021000F5FF01F069FD00F04FF803B4FFF7F2FFBE
:1002200003BC00F057F80000094880470948004720
:10023000FEE7FEE7FEE7FEE7FEE7FEE7FEE7FEE796
:10024000FEE7FEE704480549054A064B70470000F3
:10025000E51A000889010008E0630020E069002039
:10026000E0650020E06500207047704770477546E4
:1002700000F02CF8AE4605006946534620F0070012
:10028000854618B020B5FFF7DDFFBDE820404FF0F0
:1002900000064FF000074FF000084FF0000B21F070
:1002A0000701AC46ACE8C009ACE8C009ACE8C0093D
:1002B000ACE8C0098D46704710B50446AFF3008026
:1002C0002046BDE81040FFF7A8BF00000048704777
:1002D0007C63002001491820ABBEFEE72600020027
:1002E0007047000010B50020074908600748006803
:1002F00020F00100054908604E2001F09DFC00201F
:100300000349086010BD0000000005503438024069
:100310001000002010B50F48006840F001000D49A2
:10032000086008200C49C860A12008604E2001F038
:10033000A1FC00214E2001F0ABFC0748006840F40E
:1003400080400549086000200449086001200449F4
:10035000086010BD34380240000005501400002031
:100360001000002010B5002005490860054800680D
:1003700020F4800003490860392001F05DFC10BDC5
:10038000286402403038024070B506460C461546D7
:100390001248006840F48000104908601048066068
:1003A0000F4808300460001D05600E480C49091D07
:1003B000086007200A4910310860392001F05AFC12
:1003C0000021392001F064FC07480549091F086035
:1003D0000846006840F00100086070BD30380240F7
:1003E0002C64024028000550145487022DE9F04186
:1003F00004462A27BF1C72B6124801F089FA064645
:100400001EB962B60120BDE8F0810E4801F080FA05
:10041000054635B931460B4801F099FA62B602201B
:10042000F1E762B608480460A046E31704EB937353
:10043000C3F38F00EA19F119FFF7A6FFFFF76AFF70
:100440000020E0E7A46100201800002070B5FFF74D
:1004500049FF2A24A41C0A480068051B0848001DFF
:100460000068061BFFF77EFF72B62946054801F0BB
:100470006EFA3146034801F06AFA62B670BD0000B8
:1004800034640240A461002008200349486101202F
:100490000249086070470000000005501400002069
:1004A00070B52C48006800F40060002840D02A2570
:1004B000AD1C294801F02CFA06469EB32548283089
:1004C000006800F4002038B92248383004687019F8
:1004D00020493831086006E01E483430046870193D
:1004E0001C49343108601D48006868B145F2AA50C3
:1004F00024F8020CA01E1A490968405A19490880BC
:1005000000201649086009E01648008824F8020C0B
:10051000A01E13490968405A12490880611B1248FD
:1005200001F015FA4FF400600A490831086002E052
:1005300002200E4908600748006800F4007038B1D6
:100540004FF4007003490831086002200749086031
:1005500070BD000000640240A4610020140000206F
:10056000180000201C000020C462002010000020A1
:100570001148006820F060600F4908603D200028A5
:1005800017DB00F01F02012191400C4A430942F899
:10059000231000BF00BF00BFBFF34F8F00BF00BFDD
:1005A00000BF00BF00BF00BFBFF36F8F00BF00BF21
:1005B00000BF00BF704700003038024080E100E01B
:1005C00070B52B48456905F4803000283FD005F010
:1005D0004000B0B3002432E0264800EB041000686D
:1005E00000F0004050BB234800EB0410008800F4EA
:1005F0000070E8B11F4800EB0410008800F4807020
:10060000B0B11C4800EB0410008800F4004078B939
:10061000194801F07DF9064656B1164800EB041062
:100620008168164801F093F9124800EB04108660C7
:100630004FF000400F4901EB04110860641C022CCC
:10064000CADB0B4840690E4908400949486105F476
:10065000004060B105F4005010B101200949086064
:10066000034840694AF2BA7108400149486170BDC7
:1006700000900240240000208460002014610020CB
:10068000444001000C00002070B56C48006840F444
:1006900080406A4908606A48006840F40000684980
:1006A000086066481438006840F060606349143997
:1006B00008600421634800F0E1FE0421624800F074
:1006C000DDFE002406E0614800EBC4215D4801F036
:1006D0003EF9641C042CF6DB002419E04FF40060A2
:1006E0005B4901EB04114860564801F011F90546D9
:1006F000574800EB041085600020554901EB0411B8
:10070000C8604FF00040524901EB04110860641CBE
:10071000022CE3DB4E48406940F400414C48416103
:1007200008214C4800F0AAFE10214B4800F0A6FE1C
:1007300008214A4800F0A2FE002406E0484800EBE9
:10074000C421444801F003F9641C082CF6DB0024A2
:1007500016E00020434901EB041148603D4801F0D8
:10076000D7F805463F4800EB0410856000203D495E
:1007700001EB0411C8603B4901EB04110860641CE3
:10078000042CE6DB4FF4001036490863002036499C
:100790000860364908804880888000213348C1803D
:1007A00001813348006840F001003149086000BF12
:1007B0002F48006800F001000028F9D14FF488307C
:1007C0002B4908602248C8602648086129480089EA
:1007D0002949086427488188C08841EA00402649A1
:1007E00048643D20002809DB00F01F0201219140F0
:1007F0004209920002F1E022C2F8001100BF3D2040
:100800000021002804DB0A07130E1C4A135406E0DB
:100810000A07160E1A4A00F00F031B1FD65400BF1A
:1008200018481349C86144F60C001349086016487B
:100830000F49886100201549086070BD44380240A6
:1008400004380140846000201461002084000020EE
:1008500024000020A461002034620020C462002033
:100860008420002044000020000000205463002069
:1008700000900240646300200080024000E400E039
:1008800018ED00E0FEE70100022000020C0000204D
:1008900010B518210F4800F059F9C8B14AF6C00048
:1008A0000C49088044F6016048804FF482408880FB
:1008B00042F217710748C18041F225310181064893
:1008C0000449C860082205490248103001F05EFA68
:1008D00010BD000064630020335577110400002030
:1008E00070B50D4800F010FB00B970BD0A4801F06A
:1008F0000FF8044609488189204600F059FF054653
:1009000072B62146064801F022F82946044801F053
:100910001EF862B600BFE8E7C462002054630020FE
:10092000346200202DE9F84F4FF0000B434800F0EF
:10093000EBFA08B9BDE8F88F72B6404800F0E8FF5E
:1009400004460CB962B6F5E73D4800F0E1FF064603
:100950002EB921463B4800F0FAFF62B6EAE762B6DC
:10096000A14604F10E05288A37490988884207D133
:10097000688A35494988884202D14FF0010801E070
:100980004FF00008688AFF21B1EB202F02D14FF011
:10099000010A01E04FF0000AB9F80C00B0F5C16F90
:1009A00005D13146204600F081FD83462EE0B9F89E
:1009B0000C0008282AD1B8F1000F02D1BAF1000FBB
:1009C00024D0687A012808D1B8F1000F05D031464B
:1009D000204600F0BDFD834618E0687A112815D145
:1009E00004F1220000900098408847F217118842D5
:1009F0000BD13146204600F097FA07462FB13A4610
:100A00003146204600F02EFE834600BF72B6BBF191
:100A1000000F08D031460D4800F099FF59460B48A9
:100A200000F095FF03E03146054800F090FF2146B5
:100A3000044800F08CFF62B600BF7BE71461002021
:100A4000A4610020846000206463002034620020E0
:100A50002DE9F041344800F057FA10B90020BDE804
:100A6000F08132480468006808B9032702E02F4883
:100A70000068471E54E02E4800EB0410006800F0A8
:100A80000040002844D172B6274800F041FF0546D7
:100A900015B962B60020E2E7234800F039FF86B2BC
:100AA00036B92946234800F052FF62B60120D6E746
:100AB0001F4800EB041081681E4800F048FF62B632
:100AC000C6F30B001A4901EB04114860184800EB0B
:100AD000041085600020164901EB0411C8604FF036
:100AE0003040134901EB041108601148006B40F4D9
:100AF00000100F490863032C03D100200B49086044
:100B000002E0601C0949086000200B494860A6E724
:100B1000032C01D1002403E0BC4200D101E0641C9D
:100B2000A9E700BF02209AE73462002000000020FD
:100B300044000020A46100200090024040F20570B3
:100B40000149086070470000003C024070B5034650
:100B5000094A1D460024002005E0165C2E54165C50
:100B60002644B4B2401C8842F7DB505AA04201D060
:100B7000012070BD0020FCE700C000082DE9F0470F
:100B800082460D4600F03EF810B90120BDE8F0871E
:100B9000032000F065FFDFF85880D14600270024CD
:100BA0000DE019F8041008EB040001F00FF80646F8
:100BB00006B106E019F80400384487B2641CAC4260
:100BC000EFDB00BFF9B208EB050000F0FFFF0646BF
:100BD0001EB100F00FF83046D8E739126A1C08EB56
:100BE000020000F0F3FF064600F004F83046CDE7BF
:100BF00000C000084FF00040014908607047000045
:100C0000103C02400948006800F0004060B108480C
:100C100006490C390860074808600448006800F07D
:100C2000004008B1002070470120FCE7103C024062
:100C300023016745AB89EFCD7348006840F017008A
:100C4000714908607148006843F20101884340F42B
:100C5000283040F400006D4908606C480830006896
:100C60006B490843694908310860684820300068CA
:100C70006849084040F05D4064492031086063489D
:100C8000406A20F4704040F00D0040F450415F484D
:100C900041625D48006840F004005B4908605B48C1
:100CA000006820F4402040F400205849086057486C
:100CB0000830006840F44020544908310860081F9B
:100CC000006820F40070091F0860081F406A20F0C7
:100CD000F000091F48625048006843F20101884350
:100CE00040F0080040F420504B49086008468068F6
:100CF00043F60C410843484988600846006A474962
:100D0000084040F0D01040F0506043490862444829
:100D100000684CF20101884340F4204040490860DB
:100D20003F480830006840F470403D490831086091
:100D30003B48203000683749084040F05D40384962
:100D4000203108603748006843F20101884340F4CD
:100D50000850344908600846806840F44C50886068
:100D60000846006A2D49084040F4502040F0506089
:100D70002C4908622A4800682B49084040F420208A
:100D800027490860081D006840F44070091D08608C
:100D9000081D006840F47020091D08602048406A62
:100DA00020F00F00001D40F040011D484162164830
:100DB000006840F00400144908601448006820F4FA
:100DC000402040F4002011490860104808300068B5
:100DD00040F440200D4908310860081F006820F4E5
:100DE0000070091F0860081F406A20F0F000091F0A
:100DF000486205482838006820F0784040F080407C
:100E00000149283908607047303802400008024024
:100E100000F0C300FEFFFF0F00100240FEFFFFF0D6
:100E20000004024000000240FEFFFCFF2E48006864
:100E300040F007002C4908602C4800684CF20D0176
:100E4000884340F0280040F40040284908600846E4
:100E500080684CF23C010843244988600846006AD7
:100E60002349084040F43B6040F030401F4908628D
:100E7000204800682049084040F028601D4908606B
:100E80001C480830006840F07C601A49083108604E
:100E90001848406A1949084040F43B2040F43001AA
:100EA000144841621648006840F60D41884340F4FA
:100EB000027040F400601249086011480830006870
:100EC00040F60C7108430E49083108600C48203088
:100ED00000680C49084040F0B00040F43B0008496D
:100EE00020310860704700003038024000000240A6
:100EF0000FFFFF0F00040240FEFF3FF3FE0F0FFF46
:100F0000000802400EFF0FFF014609B9002070479C
:100F1000D1F88000FBE700000146024850F82100AC
:100F200070470000200000202DE9F34F81B080467B
:100F3000464608F10E0908F12A05029800F12A0434
:100F400028782070212000908B480088B9F80C1078
:100F5000884216D188484188B9F80E00814210D1E4
:100F600085488088F18888420BD18348C1883089C0
:100F7000814206D1804801897089814201D10127CF
:100F800000E000272878303808286FD2DFE800F02A
:100F90000417427F9CA8B4DF00216170A01C774930
:100FA000098801807549498841807449C968416050
:100FB00071490988018170494A884281D9E06E48A7
:100FC000008828B16C48408810B101206070D0E0E2
:100FD00005F1010B6949DBF80000C968884202D0BD
:100FE0000020BDE8FE8F6648006808B1FFF72EFAC2
:100FF00005F1010ABAF8040060490880BAF8060051
:10100000488018215D48FFF7B9FD01205D4908605F
:101010000020E6E75848008848BB5748408830BB66
:1010200005F1010A082251465448103000F044FEF0
:10103000C8B95348006808B1FFF708FAB9F80C00BE
:101040004D490880B9F80E004880F08888803189C1
:101050004948C18071890181BAF808004649488130
:101060000020607001E0022060700FE07EE0FFE78A
:101070000120607040480178A1700088010AE17089
:101080003D48817821714088010A617171E005F164
:10109000010A082251463948103000F00DFE80B98F
:1010A0003748006808B1FFF7D1F9002032490880BD
:1010B0004880888000213048C18001810020607014
:1010C00001E00220607054E017B90320607050E026
:1010D00000206070A978687800F042F9A07048E0BC
:1010E00017B90320607044E0002060706878E11C4C
:1010F00000F062F8A0703CE017B90320607038E09F
:101100006978A87841EA00201B498881898950299B
:1011100008DB19498889C11700EB91718910A0EB90
:10112000810111B10520607023E015480068012895
:1011300002D1062060701CE00F498889FFF756F93C
:1011400010B10420607014E00020607011E017B945
:10115000032060700DE00A48006810B90720607035
:1011600007E0FFF773F90020607002E0082060706C
:1011700000BF00BF009834E7546300206463002080
:10118000100000200C0000200948006840F4001006
:1011900007490860F020074908601220091D08600F
:1011A0002A200449183908600120091F0860704787
:1011B000403802401C54004010B502460B4642F233
:1011C000107105E0081EA1F1010101D1012010BD3F
:1011D0006248006800F002000028F3D15F48183828
:1011E000006840F480705D4C183C206042F2107141
:1011F00005E0081EA1F1010101D10220E7E75748EF
:10120000006800F001000028F3D06020534C083C37
:10121000206042F2107105E0081EA1F1010101D128
:101220000320D4E74D48001F006800F002000028AA
:10123000F2D042F2107105E0081EA1F1010101D1C6
:101240000420C4E74548006800F004000028F3D0FB
:1012500042F2107105E0081EA1F1010101D1052043
:10126000B5E73E48001F006800F080000028F2D07B
:101270003A480838026042F2107105E0081EA1F1F8
:10128000010101D10620A2E73448001F006800F0E8
:1012900080000028F2D031481838006840F400700F
:1012A0002E4C183C206042F2107105E0081EA1F19E
:1012B000010101D107208AE72848006800F00200F8
:1012C0000028F3D125481838006840F48070234C7A
:1012D000183C206042F2107105E0081EA1F10101E6
:1012E00001D1082073E71D48006800F001000028C4
:1012F000F3D06120194C083C206042F2107105E0E7
:10130000081EA1F1010101D1092060E71348001F67
:10131000006800F002000028F2D01048006842F295
:10132000107105E0081EA1F1010101D10A204EE76C
:101330000A48001F006800F040000028F2D007486B
:101340001838006840F40070044C183C20600348D2
:10135000083800681870002039E700001854004071
:1013600010B502460B4642F2107105E0081EA1F1CD
:10137000010101D1012010BD3F48006800F00200CA
:101380000028F3D13C481838006840F480703A4C8B
:10139000183C206042F2107105E0081EA1F1010125
:1013A00001D10220E7E73448006800F0010000287E
:1013B000F3D06020304C083C206042F2107105E010
:1013C000081EA1F1010101D10320D4E72A48001F22
:1013D000006800F002000028F2D042F2107105E02F
:1013E000081EA1F1010101D10420C4E722480068D0
:1013F00000F004000028F3D042F2107105E0081E4E
:10140000A1F1010101D10520B5E71B48001F0068CB
:1014100000F080000028F2D017480838026042F23D
:10142000107105E0081EA1F1010101D10620A2E71B
:101430001148001F006800F080000028F2D00E481C
:101440000838036042F2107105E0081EA1F10101A5
:1014500001D107208FE70848001F006800F08000D6
:101460000028F2D004481838006840F40070024C9C
:10147000183C206000207EE718540040024612B15C
:10148000202900D209B9012070478032D1600020A4
:10149000106050609060803A002303E0002042F822
:1014A00023005B1C8B42F9D30020EDE7F0B5044626
:1014B0000A4604F10E0502F10E01E888B0F5807FBE
:1014C00042D1288B214F3F88B8423DD1688B1F4FB6
:1014D0007F88B84238D113462646F08818803446B3
:1014E000308958807089988018488088D88017483B
:1014F000C7881A461F8107895F814FF4C1609881B0
:101500004FF480700880082048800620087104206D
:101510004871C001C8800D48808808810B48C78881
:101520004F8107898F810088C881084847880F82CA
:10153000288948826F898F82AF89CF82C8890883C2
:101540000F8A4F833C20F0BD0020FCE7646300203D
:101550002DE9F84F84460B464FF0000E67460CF11C
:101560000E060CF122090CF12A00009003F12A0A60
:1015700099F80000082870D11C46F888234620807E
:10158000388960807889A08035488088E080344838
:10159000C08820813248008960810820A08103F141
:1015A0000E0245201070002050707088508000207E
:1015B0009080D0808020107201205072284841888D
:1015C00000880144F0890144B0890144508800F248
:1015D000C510014488B200EB114188B200EB114103
:1015E000C94351811E48008890811D484088D081A0
:1015F000B0891082F089508203F122050020287002
:101600006870B9F80400A880B9F80600E880E88896
:10161000B5F804B000EB0B01B078B6F802B040EAC0
:101620002B28A8F11C084FEA5808002009E0DDF833
:1016300000B03BF810B02AF810B03AF810B0594496
:10164000401C4045F3D388B200EB1141C943698087
:101650002A2000EB48001FFA80FE7046BDE8F88F94
:10166000646300202DE9F04F05460B46944605F1D2
:101670000E0605F1220A1C46A946B9F806B0A4F8E0
:1016800000B0B9F808B0A4F802B0B9F80AB0A4F8EC
:1016900004B0DFF818B1BBF804B0A4F806B0DFF866
:1016A0000CB1BBF806B0A4F808B0DFF800B1BBF885
:1016B00008B0A4F80AB04FF0080BA4F80CB00CF175
:1016C0001C0B1FFA8BF003F10E014FF0450B81F854
:1016D00000B04FF0000B81F801B04FF47F4B0BEAE4
:1016E000002B4BEA202BA1F802B04FF0000BA1F821
:1016F00004B0A1F806B04FF0800B81F808B04FF0AD
:10170000110B81F809B0DFF8A4B0BBF80220BBF8D8
:1017100000B05A44B6F80EB05A44B6F80CB05A4469
:10172000B1F802B00BF1450B0BF58C5B5A441FFA74
:1017300082FB0BEB12421FFA82FB0BEB1242D243ED
:101740004A81DFF868B0BBF800B0A1F80CB0DFF850
:101750005CB0BBF802B0A1F80EB0B6F80CB0A1F8BE
:1017600010B0B6F80EB0A1F812B003F1220747F29C
:10177000171BA7F800B0BAF800B0A7F802B00CF138
:10178000080B1FFA8BF84FF47F4B0BEA082B4BEA40
:101790002828A7F804804FF0000BA7F806B000F146
:1017A0000E0B1FFA8BF0BDE8F08F00006463002081
:1017B0002DE9F04102460E4602F122051446DFF8FB
:1017C00048C1BCF804C0A4F800C0DFF83CC1BCF8B4
:1017D00006C0A4F802C0DFF830C1BCF808C0A4F805
:1017E00004C0DFF828C1BCF804C0A4F806C0DFF8C4
:1017F0001CC1BCF80880A4F80880BCF80880A4F8D4
:101800000A804FF0080CA4F80CC006F11C0C1FFA5B
:101810008CF002F10E014FF0450C81F800C04FF042
:10182000000C81F801C04FF47F4C0CEA002C4CEA0C
:10183000202CA1F802C04FF0000CA1F804C0A1F8C0
:1018400006C04FF0800C81F808C04FF0110C81F8F1
:1018500009C0DFF8B8C0BCF80230BCF800C063446F
:10186000DFF8A4C0BCF802C06344DFF89CC0BCF839
:1018700000C06344B1F802C00CF1450C0CF58C5C5F
:1018800063441FFA83FC0CEB13431FFA83FC0CEB3D
:101890001343DB434B81DFF874C0BCF800C0A1F8F0
:1018A0000CC0DFF868C0BCF80280A1F80E80DFF839
:1018B00058C0BCF800C0A1F810C0DFF84CC0BCF89C
:1018C0000280A1F8128002F1220547F2172CA5F838
:1018D00000C0DFF834C0BCF80AC0A5F802C006F1A9
:1018E000080C1FFA8CF74FF47F4C0CEA072C4CEADB
:1018F0002727AF804FF0000CA5F806C000F10E0CB2
:101900001FFA8CF0BDE8F08154630020646300206E
:10191000014611B1D1F8800008B900207047D1F814
:10192000880051F8202051F8800F401E0860D1E94E
:1019300002038039984203D30020C1F8880004E0F4
:10194000D1F88800401CC1F888001046E6E702463E
:101950002AB1D2F88C30D2F88000984201D301200D
:101960007047D2F8840042F8201052F8800F401CD3
:101970001060D3685068803A984203D30020C2F8C0
:10198000840004E0D2F88400401CC2F884000020E7
:10199000E6E700002F48006840F480302D490860D9
:1019A00000BF2C48006808B9012000E0002000F4C6
:1019B00000300028F5D128482649091D0860081D77
:1019C000006820F0F000091D08600846006820F457
:1019D000E05040F4A05008600846006820F46040E1
:1019E00040F4004008601B48006840F080701949CE
:1019F000086000BF1748006808B9012000E0002017
:101A000000F000700028F5D112480830006820F07E
:101A10000300801C0F49083108600E48006820F060
:101A200001000C4908600D480A49843108600948E2
:101A3000006840F080600749086000BF0548006802
:101A400008B9012000E0002000F000600028F5D176
:101A5000704700000038024008544007000C002086
:101A600001460B2901DD012070471A48006800F08B
:101A7000004008B10220F7E742F2107205E0101EA4
:101A8000A2F1010201D10320EEE71248001F006815
:101A900000F480300028F2D101F00F00022343EA65
:101AA000C0000C4B18601846006840F48030186085
:101AB00042F2107205E0101EA2F1010201D10420D1
:101AC000D2E70448001F006800F480300028F2D1FB
:101AD00000BFC9E7103C0240014A42F8201070479D
:101AE000200000200548006840F4700003490860A9
:101AF0004FF00060014980390860704788ED00E0D0
:101B000010B5002004E000211D4A42F82010401CBE
:101B10000128F8DB1B48006840F0200019490860E4
:101B20004FF45270184908606420091D08600120B4
:101B300015491C390860812013492839086037206D
:101B4000002809DB00F01F020121914042099200A8
:101B500002F1E022C2F8001100BF37200021002866
:101B600004DB0A07130E094A135406E00A07140E91
:101B7000074A00F00F031B1FD45400BF10BD000024
:101B800020000020403802402814004000E400E01B
:101B900018ED00E00B48006820F0010009490860DA
:101BA00000200BE0084951F8201031B1064951F8E6
:101BB0002010491E044A42F82010401C0128F1DB85
:101BC00070470000101400402000002010B50246AD
:101BD0001848006800F0004008B1012010BD42F232
:101BE000107305E0181EA3F1010301D10220F5E7EF
:101BF0001048001F006800F480300028F2D1012056
:101C00000C4C2060117042F2107305E0181EA3F115
:101C1000010301D10320E1E70648001F006800F43A
:101C200080300028F2D11078884201D00420D5E716
:101C30000020D3E7103C0240002817DB00F01F0211
:101C4000012191400A4A430942F8231000BF00BF16
:101C500000BFBFF34F8F00BF00BF00BF00BF00BF7A
:101C600000BFBFF36F8F00BF00BF00BF7047000011
:101C700080E100E0002809DB00F01F020121914013
:101C80004209920002F1E022C2F800117047000000
:101C900010B5002804DB0A07130E054A135406E0AA
:101CA0000A07140E034A00F00F031B1FD45410BD83
:101CB00000E400E018ED00E030B503460C460AB938
:101CC000002030BD03B10CB9FF20FAE7002106E087
:101CD000585C655CA84201D00120F2E7491C9142A2
:101CE000F6D30020EDE70000FEF728FFFFF752FED5
:101CF000FFF706FFFEF7A0FFFFF746FA05210020D9
:101D0000FFF7EAFE00BF0020FFF706F90028FAD12E
:101D1000FEF7BEFDFFF78AF8FEF7B6FC2EE0184886
:101D2000006888B1FEF7DEFAFEF71CFBFEF720FC28
:101D30000A210020FFF7D0FE00BF0020FFF7ECF8DB
:101D40000028FAD1FEF7A0FC0E48006802280FD147
:101D5000FEF77CFB0A210020FFF7BEFE00BF00203B
:101D6000FFF7DAF80028FAD107498889FEF73EFB29
:101D7000FEF7D8FDFEF76CFEFEF7B2FDCFE70000E0
:101D80000C000020100000205463002010B5034612
:101D900002B910BD03B101B9FBE7002002E00C5C01
:101DA0001C54401C9042FAD300BFF2E74FF0407041
:101DB000E1EE100A70470000D81D00080000002066
:101DC00024000000C4010008FC1D000824000020BD
:101DD000BC690000E001000800000000726F6F7431
:101DE000726F6F740000000000000000000000002F
:0C1DF000000000000000000000000000E7
:0400000508000229C4
:00000001FF
